:100000000C946B000C9488000C9488000C9488006D
:100010000C9488000C9488000C9488000C94880040
:100020000C9488000C9488000C9488000C94880030
:100030000C9488000C9488000C9488000C94880020
:100040000C9488000C9488000C9488000C94880010
:100050000C94880007634236B79BD8A71A396856B4
:1000600018AEBAAB558C1D3CB7CC5763BD6DEDFDDA
:10007000753EF6177231BF000000803F0800000097
:10008000BE922449123EABAAAA2ABECDCCCC4C3E8D
:1000900000000080BEABAAAAAA3E00000000BF007C
:1000A0000000803F0000000000084178D3BB438778
:1000B000D1133D190E3CC3BD4282AD2B3E68EC828C
:1000C00076BED98FE1A93E4C80EFFFBE01C4FF7F11
:1000D0003F000000000011241FBECFE5D8E0DEBFC6
:1000E000CDBF11E0A0E6B0E0E2E6F1E202C005908B
:1000F0000D92A031B107D9F711E0A0E1B1E001C044
:100100001D92A535B107E1F70E946A090C94AF1062
:100110000C94000098B3282F207F9F70292B28BBB8
:10012000C098C19A21E0922F9A95F1F7C19892E474
:100130009A95F1F798B38295807F9F70982B98BB22
:10014000C19A2A95F1F7C19888EE93E00197F1F7EB
:10015000089598B3282F207F9F70292B28BBC09A21
:10016000C19A21E0922F9A95F1F7C19892E49A955D
:10017000F1F798B38295807F9F70982B98BBC19AB6
:100180002A95F1F7C19888EE93E00197F1F7089569
:100190008FEF87BB80ED97E022E330E0F9013197E4
:1001A000F1F70197D9F783E30E948A0082E30E9466
:1001B0008A0088E20E948A008CE00E948A0081E026
:1001C0000E948A0088EE93E00197F1F782E80E948E
:1001D0008A000895DF93CF9300D0CDB7DEB790E8C3
:1001E000998390EC9A83FE01E60FF11D9181890FAE
:1001F0000E948A000F900F90CF91DF9108951F9376
:10020000CF93DF93EC0110E004C090E00E94A900BE
:100210001F5FFE01E10FF11D80818823B1F7DF919F
:10022000CF911F910895CF93DF93EA01882331F492
:10023000603168F46F70862F806807C0813039F4B0
:10024000603128F46F70862F806C0E948A00CE0186
:100250000E94FF00DF91CF91089581E00E948A0003
:1002600088EE93E00197F1F7089511B810B808955A
:1002700084EA86BF06B607FEFDCF81B1887F88304D
:10028000E1F7089584E986BF06B604FCFDCF089522
:1002900083B984E886BF06B607FEFDCF089583B90B
:1002A00084E886BF06B607FEFDCF0895892B11F4BA
:1002B00084E801C084EC86BF06B607FEFDCF83B19B
:1002C000089584EA86BF06B607FEFDCF81B1887F18
:1002D0008031E1F708958E9A969880E197E2019730
:1002E000F1F7969A08958E988699FECF869BFECF59
:1002F0008699FECF08958091110120E030E044E11D
:10030000869BFECF942F9A95F1F7869B03C0880FAA
:10031000816001C0880F8699FECF2F5F3F4F283044
:10032000310571F78093110108951F93182F0E94D2
:10033000380180ED83B984E886BF06B607FEFDCF9D
:1003400013B984E886BF06B607FEFDCF0E9461019F
:1003500081ED83B984E886BF06B607FEFDCF84EC45
:1003600086BF06B607FEFDCF83B18093440110928D
:10037000450184EC86BF06B607FEFDCF83B18093AE
:1003800046011092470184E886BF06B607FEFDCFFE
:1003900083B1809348011092490184E986BF06B673
:1003A00004FCFDCF1F9108951F93182F0E94380160
:1003B00080ED83B984E886BF06B607FEFDCF13B98A
:1003C00084E886BF06B607FEFDCF0E94610181ED7D
:1003D00083B984E886BF06B607FEFDCF84EC86BFEE
:1003E00006B607FEFDCF83B18093500110925101F4
:1003F00084EC86BF06B607FEFDCF83B18093530120
:100400001092540184EC86BF06B607FEFDCF83B17F
:10041000809342011092430184E886BF06B607FE2E
:10042000FDCF83B180934C0110924D0184E986BFCA
:1004300006B604FCFDCF1F910895D09880E886B9D8
:10044000089580E487B9369A3699FECF24B135B144
:10045000C90108958AB188618AB980B5866880BD6E
:1004600010BC8CE089B908955D9BFECF8CB90895CE
:10047000FC0104C05D9BFECF8CB93196808188233E
:10048000C9F708950F931F930E9438018EEE83B928
:1004900084E886BF06B607FEFDCF84EF83B984E803
:1004A00086BF06B607FEFDCF809112019091130121
:1004B0008230910519F18330910579F1019779F036
:1004C00084E383B984E886BF06B607FEFDCF84E9DE
:1004D00086BF06B604FCFDCF8AEC98E02CC084E70A
:1004E00083B984E886BF06B607FEFDCF84E986BFE0
:1004F00006B604FCFDCF86EA9EE01DC084EB83B9FE
:1005000084E886BF06B607FEFDCF84E986BF06B63F
:1005100004FCFDCF8EE59AE10EC084EF83B984E838
:1005200086BF06B607FEFDCF84E986BF06B604FC8B
:10053000FDCF8EEC91E30197F1F70E9438018EEE2A
:1005400083B984E886BF06B607FEFDCF86EF83B980
:1005500084E886BF06B607FEFDCF87EF83B984E83F
:1005600086BF06B607FEFDCF0E9461018FEE83B9FC
:1005700084E886BF06B607FEFDCF84EC86BF06B6CC
:1005800007FEFDCF03B184E886BF06B607FEFDCFA8
:1005900013B184E986BF06B604FCFDCF0E94380182
:1005A0008EEE83B984E886BF06B607FEFDCF88EFDE
:1005B00083B984E886BF06B607FEFDCF0E946101BD
:1005C0008FEE83B984E886BF06B607FEFDCF84E8C8
:1005D00086BF06B607FEFDCF63B184E986BF06B6C7
:1005E00004FCFDCF202F30E040E050E0A90133278C
:1005F0002227812F90E0A0E0B0E0BA2FA92F982FFA
:100600008827282B392B4A2B5B2B862F90E0A0E0E4
:10061000B0E0282B392B4A2B5B2B88E090E06091CF
:10062000120170911301861B970B04C056954795D4
:10063000379527958A95D2F7B901CA011F910F9175
:1006400008950E9438018EEE83B984E886BF06B60D
:1006500007FEFDCF84EF83B984E886BF06B607FEA8
:10066000FDCF8EE283B984E886BF06B607FEFDCFD4
:1006700084E986BF06B604FCFDCF8AEC98E00197BA
:10068000F1F70E9438018EEE83B984E886BF06B682
:1006900007FEFDCF86EF83B984E886BF06B607FE66
:1006A000FDCF87EF83B984E886BF06B607FEFDCF8E
:1006B0000E9461018FEE83B984E886BF06B607FE0B
:1006C000FDCF84EC86BF06B607FEFDCF23B184E8DC
:1006D00086BF06B607FEFDCF93B184E986BF06B696
:1006E00004FCFDCF30E040E050E0542F432F322F88
:1006F0002227892F90E0A0E0B0E0282B392B4A2B4D
:100700005B2BB901CA0108952F923F924F925F92DD
:100710006F927F928F929F92AF92BF92CF92DF9211
:10072000EF92FF920F931F93DF93CF9300D000D0EF
:100730000F92CDB7DEB70E94210320913201309194
:10074000330140E050E0621B730B840B950B20914A
:1007500030013091310140E050E00E94020D0E94D2
:10076000AE0A20E030E040E058E30E943A0B0E94DD
:100770007B0A5B016C0160913E0170913F0188270B
:1007800077FD8095982F0E94AE0A20E030E040E08F
:1007900055E40E943A0B7B018C01609140017091FD
:1007A0004101882777FD8095982F6A0D7B1D8C1D50
:1007B0009D1D0E94AE0A9B01AC01C801B7010E94B9
:1007C000130A0E947B0A6A0D7B1D8C1D9D1D609380
:1007D00038017093390180933A0190933B010E9454
:1007E00042023B014C01A0903801B0903901C09009
:1007F0003A01D0903B0180E690EFAFEFBFEFA80E3B
:10080000B91ECA1EDB1EC601B501A60195010E94D4
:10081000020D0E94AE0A20E030E040E859E30E9459
:100820003A0B1B012C01909112019D8360912C01C8
:1008300070912D01882777FD8095982FA60195014D
:100840000E94020D0E94AE0A20E030E040E059E331
:100850000E943A0B0E947B0A7B018C0182E090E0AF
:10086000A0E0B0E0E80EF91E0A1F1B1F60913401E2
:1008700070913501882777FD8095982F0E94AE0AE8
:10088000A20191010E943A0B20E030E040E857E3DA
:100890000E943A0B0E947B0AE60EF71E081F191FE2
:1008A000C801B7010E94AE0A20E030E040E85EE3F4
:1008B0000E943A0B0E947B0A605070488F4F9F4FF6
:1008C00020912E0130912F0140E050E00E94020D56
:1008D0000E94AC0A20E030E040E058E30E943A0B6E
:1008E0000E94800A69837A838B839C8360912A01AA
:1008F00070912B01882777FD8095982FA60195018F
:100900000E94020D0E94AE0A20E030E040E05AE36F
:100910000E943A0B0E947B0A7B018C018091280186
:1009200090912901AA2797FDA095BA2F22E0880F60
:10093000991FAA1FBB1F2A95D1F7E80EF91E0A1F9F
:100940001B1F6091360170913701882777FD8095D4
:10095000982F0E94AE0AA20191010E943A0B20E05A
:1009600030E040E05AE30E943A0B0E947B0AE60E18
:10097000F71E081F191F0D8004C0EE0CFF1C001F7E
:10098000111F0A94D2F782E090E0A0E0B0E0E80EF8
:10099000F91E0A1F1B1FC801B70124E030E040E028
:1009A00050E00E94570D621A730A840A950A20E5E6
:1009B00033EC40E050E00D8004C0569547953795E4
:1009C00027950A94D2F7C401B3010E94020D97FD46
:1009D0000FC0660F771F881F991F29813A814B81AD
:1009E0005C810E94350DC901DA013C014D010CC04A
:1009F00029813A814B815C810E94350D39014A0180
:100A0000660C771C881C991CC401B3010E94AE0AB5
:100A10005B016C0120E030E040E85BE30E943A0BB0
:100A20009B01AC010E943A0B0E947B0A2EED3BE039
:100A300040E050E00E94020D7B018C01C401B30133
:100A400023E433EE4FEF5FEF0E94020D0E94AE0AE7
:100A500020E030E040E857E30E943A0B0E947B0A16
:100A60006153714F8F4F9F4F78011127F7FC1095FD
:100A7000012FE60EF71E081F191FC801B7010E94BB
:100A8000AE0A20E030E040E85DE30E943A0B9B01B3
:100A9000AC01C601B5010E94AF090E947B0A9B010F
:100AA000AC01609320017093210180932201909307
:100AB0002301CA010F900F900F900F900F90CF91CC
:100AC000DF911F910F91FF90EF90DF90CF90BF903B
:100AD000AF909F908F907F906F905F904F903F90DE
:100AE0002F9008955F926F927F928F929F92AF9214
:100AF000BF92CF92DF92EF92FF920F931F93DF93FB
:100B0000CF93CDB7DEB766970FB6F894DEBF0FBEB2
:100B1000CDBF6E010894C11CD11CF6EFEF2EF0E0A2
:100B2000FF2EEEEE5E2E74E8B72E6FEE662E54ECBE
:100B3000752E44E9A42E37E1832E912C8C0E9D1E38
:100B40000E94380153B8B6BE06B607FEFDCFF701C6
:100B50009081818183B9B6BE06B607FEFDCF93B9F9
:100B6000B6BE06B607FEFDCF0E94610163B8B6BEF1
:100B700006B607FEFDCF76BE06B607FEFDCF93B1E3
:100B8000B6BE06B607FEFDCF83B1192F00E090E098
:100B9000802B912BF60191838083A6BE06B604FCC0
:100BA000FDCF82E090E0C80ED91EE80EF91EC814F1
:100BB000D90431F689819A81909329018093280183
:100BC0008B819C8190932B0180932A018D819E8142
:100BD00090932D0180932C018F81988590932F0104
:100BE00080932E0189859A859093310180933001FD
:100BF0008B859C8590933301809332018D859E85F2
:100C000090933501809334018F85988990933701B3
:100C10008093360189899A8990933D0180933C01A4
:100C20008B899C8990933F0180933E018D899E8999
:100C3000909341018093400166960FB6F894DEBF11
:100C40000FBECDBFCF91DF911F910F91FF90EF901D
:100C5000DF90CF90BF90AF909F908F907F906F90DC
:100C60005F9008950F931F938C010E94720510935B
:100C70001301009312011F910F910895EF92FF92BB
:100C80000F931F930E94720510921301109212018C
:100C90000E9484037B018C01D09880E886B90E9471
:100CA000210224B3206724BB8C52914090F088EE3F
:100CB000E8168AE7F80681E0080780E018074CF09C
:100CC00029E2E2162AE9F20621E0020720E01207F3
:100CD00084F085B3806685BBAC9880E395E722E31A
:100CE00030E0F9013197F1F70197D9F7AD98AE9857
:100CF0000DC0AC9AAD98AE9880E395E722E330E062
:100D0000F9013197F1F70197D9F7AC981F910F913D
:100D1000FF90EF900895EF92FF920F931F93DF9350
:100D2000CF93CDB7DEB72A970FB6F894DEBF0FBECC
:100D3000CDBF0E94720510921301109212010E9401
:100D400084037B018C010E942A020E94C8000E9439
:100D50002D0180E060E040E650E00E941301C801F0
:100D6000B7018E010F5F1F4FA8012AE030E00E94FB
:100D7000930D81E060E0A8010E941301AAE6EA2E2B
:100D8000A0E0FA2E81E067E0A7010E941301C801EC
:100D90000E943802C7010E9438028DE690E00E944E
:100DA00038022A960FB6F894DEBF0FBECDBFCF91A2
:100DB000DF911F910F91FF90EF90089560912001B6
:100DC0007091210180912201909123010E94AE0A2D
:100DD00020E836EE45EC57E40E94130A21E03EED90
:100DE00042E45EE30E949D0B9B01AC0160E070E079
:100DF00080E89FE30E94AE0920E03AE24DE257E42A
:100E00000E943A0B60932401709325018093260180
:100E1000909327010E947B0A9B01AC01CA010895AF
:100E2000EF92FF920F931F93DF93CF93CDB7DEB76F
:100E30002A970FB6F894DEBF0FBECDBF0E94DE0624
:100E40007B018C010E942A020E94C8000E942D0191
:100E500080E060E04FE650E00E941301C801B70156
:100E60008E010F5F1F4FA8012AE030E00E94930D12
:100E700081E060E0A8010E941301B9E7EB2EB0E029
:100E8000FB2E81E064E0A7010E941301C8010E94CB
:100E90003802C7010E9438028BE790E00E943802B6
:100EA0002A960FB6F894DEBF0FBECDBFCF91DF916B
:100EB0001F910F91FF90EF900895EF92FF920F9383
:100EC0001F93DF93CF93CDB7DEB72A970FB6F89471
:100ED000DEBF0FBECDBF0E94C8000E942D01D0987A
:100EE00080E886B90E942A020E9421027C018DE7D7
:100EF00090E00E94FF0084E690E09C01E29EC00129
:100F0000E39E900DF29E900D11246FEF73E00E940E
:100F1000210DCB018E010F5F1F4FB8014AE050E059
:100F20000E94720D8CE060E0A8010E941301C801CC
:100F30000E9438028EE060E00E94EA0089E890E0BA
:100F40000E94FF0089E890E00E9438028DE690E060
:100F50000E9438023CE2E31631E0F30648F481E0F7
:100F600060E04BE850E00E9413018BE890E019C06C
:100F700084ED9EEFE80EF91E98ECE916F10448F4B2
:100F800081E060E046E950E00E94130186E990E0CC
:100F900008C081E060E044EA50E00E94130184EA66
:100FA00090E00E9438028DE690E00E9438022A9676
:100FB0000FB6F894DEBF0FBECDBFCF91DF911F916A
:100FC0000F91FF90EF9008950F931F93DF93CF93AE
:100FD00000D000D00F92CDB7DEB70E94C8000E94AB
:100FE0002D010E942A020E946B010E9473010E943F
:100FF0007B0180934F010E947B0180934A010E94F4
:101000007B0180934E010E947B01809352010E94DC
:101010007B0180934B0140914A0120914F0130E0C8
:10102000240F311D40914E01240F311D409152017A
:10103000240F311D90E02817390749F080E060E067
:101040000E94EA008CEA90E00E94FF0087C080E0E6
:1010500060E00E94EA0082EB90E00E94FF00809135
:101060004F0190E08E010F5F1F4FB8014AE050E042
:101070000E94720D8BE060E00E94EA00C8010E94AD
:1010800038028DEB90E00E943802C8010E94FF00F8
:101090008DEB90E00E94FF0080914A0190E0B80142
:1010A0004AE050E00E94720DC8010E94380289E8AF
:1010B00090E00E9438028DE690E00E943802C8015C
:1010C0000E94FF0089E890E00E94FF0080E061E05C
:1010D0000E94EA008FEB90E00E94FF0080914E0199
:1010E00090E0B8014AE050E00E94720D86E061E0B5
:1010F0000E94EA00C8010E9438028DEB90E00E9435
:101100003802C8010E94FF008DEB90E00E94FF00B2
:101110008091520190E0B8014AE050E00E94720DC7
:10112000C8010E94FF00C8010E94380287EC90E0CD
:101130000E9438028DE690E00E9438028FED90E028
:101140000E94A90089EC90E00E94FF0080914B0171
:1011500090E0B8014AE050E00E94720D0F900F90AD
:101160000F900F900F90CF91DF911F910F910895E5
:10117000EF92FF920F931F93DF93CF93CDB7DEB71C
:1011800064970FB6F894DEBF0FBECDBF11B810B88C
:101190000E942A020E94C8000E942D0180E00E9445
:1011A00095018CEC90E00E94FF008DB79EB70A97E6
:1011B0000FB6F8949EBF0FBE8DBFEDB7FEB7319648
:1011C0008E010F5F1F4FADB7BEB712961C930E93E3
:1011D000119782ED90E093838283809148019091F2
:1011E00049019583848380914601909147019783BB
:1011F00086838091440190914501918780870E9468
:10120000C70D8DB79EB70A960FB6F8949EBF0FBE56
:101210008DBF86E060E0A8010E941301C8010E9412
:1012200038028DE6E82E80E0F82EC7010E943802D1
:1012300083E00E94D401ADB7BEB71A970FB6F894F9
:10124000BEBF0FBEADBFEDB7FEB7319612961C9371
:101250000E93119781EE90E09383828380915301E6
:101260009091540195838483809142019091430130
:101270009783868380914C0190914D01918780875F
:101280000E94C70D8DB79EB70A960FB6F8949EBF01
:101290000FBE8DBFC8010E943802C7010E943802EC
:1012A00080E061E00E94EA0080EF90E00E94FF0091
:1012B00081E066E0A8010E94130164960FB6F894DD
:1012C000DEBF0FBECDBFCF91DF911F910F91FF9079
:1012D000EF9008950E94B80880E395E722E330E09C
:1012E000F9013197F1F70197D9F70E942D010E947A
:1012F000E40780E395E722E330E0F9013197F1F765
:101300000197D9F70E942D010E945D0780E395E7C0
:1013100022E330E0F9013197F1F70197D9F70E9404
:101320002D010E948B0680E395E722E330E0F9016E
:101330003197F1F70197D9F70E942D010E9410070C
:1013400080E395E722E330E0F9013197F1F7019767
:10135000D9F70E942D010E943E06FDCF5058BB27B1
:10136000AA270ED04DC13ED130F043D120F031F448
:101370009F3F11F41EF433C10EF4E095E7FB29C141
:10138000E92F4FD180F3BA176207730784079507D7
:1013900018F071F49EF567C10EF4E0950B2EBA2F8C
:1013A000A02D0B01B90190010C01CA01A00111246B
:1013B000FF27591B99F0593F50F4503E68F11A1617
:1013C000F040A22F232F342F4427585FF3CF4695A8
:1013D00037952795A795F0405395C9F77EF41F16CA
:1013E000BA0B620B730B840BBAF09150A1F0FF0F94
:1013F000BB1F661F771F881FC2F70EC0BA0F621F80
:10140000731F841F48F4879577956795B795F7956F
:101410009E3F08F0B3CF9395880F08F09927EE0F01
:101420009795879508950CD0EBC0E3D040F0DAD0C3
:1014300030F021F45F3F19F0CCC0511115C1CFC07D
:10144000F0D098F39923C9F35523B1F3951B550BAD
:10145000BB27AA2762177307840738F09F5F5F4F87
:10146000220F331F441FAA1FA9F333D00E2E3AF0C8
:10147000E0E830D091505040E695001CCAF729D0E2
:10148000FE2F27D0660F771F881FBB1F2617370731
:101490004807AB07B0E809F0BB0B802DBF01FF2761
:1014A00093585F4F2AF09E3F510568F092C0DCC010
:1014B0005F3FECF3983EDCF3869577956795B7959B
:1014C000F7959F5FC9F7880F911D9695879597F9B6
:1014D0000895E1E0660F771F881FBB1F621773072F
:1014E0008407BA0720F0621B730B840BBA0BEE1F44
:1014F00088F7E095089504D06894B111B5C00895B7
:1015000098D088F09F5790F0B92F9927B751A0F045
:10151000D1F0660F771F881F991F1AF0BA95C9F787
:1015200012C0B13081F09FD0B1E008959CC0672F08
:10153000782F8827B85F39F0B93FCCF38695779537
:101540006795B395D9F73EF4909580957095619520
:101550007F4F8F4F9F4F0895E89409C097FB3EF44B
:1015600090958095709561957F4F8F4F9F4F9923F0
:10157000A9F0F92F96E9BB279395F695879577956E
:101580006795B795F111F8CFFAF4BB0F11F460FF2E
:101590001BC06F5F7F4F8F4F9F4F16C0882311F086
:1015A00096E911C0772321F09EE8872F762F05C09A
:1015B000662371F096E8862F70E060E02AF09A9535
:1015C000660F771F881FDAF7880F9695879597F92A
:1015D000089597F99F6780E870E060E008959FEFB5
:1015E00080EC089500240A941616170618060906BA
:1015F000089500240A941216130614060506089589
:10160000092E0394000C11F4882352F0BB0F40F410
:10161000BF2B11F460FF04C06F5F7F4F8F4F9F4F50
:10162000089557FD9058440F551F59F05F3F71F0D2
:101630004795880F97FB991F61F09F3F79F0879539
:101640000895121613061406551FF2CF4695F1DFC2
:1016500008C0161617061806991FF1CF8695710552
:10166000610508940895E894BB2766277727CB0186
:1016700097F908950BD0C4CFB5DF28F0BADF18F082
:10168000952309F0A6CFABCF1124EECFCADFA0F38C
:10169000959FD1F3950F50E0551F629FF001729F07
:1016A000BB27F00DB11D639FAA27F00DB11DAA1F26
:1016B000649F6627B00DA11D661F829F2227B00D73
:1016C000A11D621F739FB00DA11D621F839FA00DFE
:1016D000611D221F749F3327A00D611D231F849F4E
:1016E000600D211D822F762F6A2F11249F575040A5
:1016F0008AF0E1F088234AF0EE0FFF1FBB1F661F40
:10170000771F881F91505040A9F79E3F510570F0F8
:1017100060CFAACF5F3FECF3983EDCF386957795D8
:101720006795B795F795E7959F5FC1F7FE2B880FF3
:10173000911D9695879597F90895FA01EE0FFF1F71
:1017400030962105310599F16115710561F48038F4
:10175000BFE39B0749F168949038810561F08038B8
:10176000BFEF9B0741F0992342F5FF3FE1053105AB
:10177000210511F1E8940894E795D901AA2329F4E9
:10178000AB2FBE2FF85FD0F310C0FF5F70F4A695AB
:10179000E0F7F73950F019F0FF3A38F49F779F934C
:1017A0000CD00F9007FC905808953EF018CF60E0E1
:1017B00070E080E89FE308954FE79F775F934F9332
:1017C0003F932F939ED02F913F914F915F9152DF86
:1017D00005C019F40EF0FDCE46CF01CF2ADFC8F3C5
:1017E0009638C0F707F80F92E8942BE33AEA48EBF3
:1017F0005FE74EDF0F920F920F924DB75EB70F92D9
:10180000C0D0E4E5F0E016D04F915F91EF91FF91E9
:10181000E595EE1FFF1F49F0FE57E0684427EE0FE5
:10182000441FFA95E1F74195550B32D00F9007FE12
:1018300026C00895DF93CF931F930F93FF92EF92EB
:10184000DF927B018C01689405C0DA2EEF011EDF68
:10185000FE01E894A5912591359145915591AEF3FE
:10186000EF018EDDFE019701A801DA9479F7DF9090
:10187000EF90FF900F911F91CF91DF9108959B0101
:10188000AC0160E070E080E89FE3CDCDA2CEACC0BB
:10189000D0DEE8F39923D9F3940F511DBBF3915097
:1018A000504094F059F0882332F0660F771F881F5C
:1018B00091505040C1F79E3F510544F7880F911D4C
:1018C0009695879597F908955F3FACF0983E9CF008
:1018D000BB27869577956795B79508F4B160939582
:1018E000C1F7BB0F58F711F460FFE8CF6F5F7F4F70
:1018F0008F4F9F4FE3CFB8CE0EF076C070CE689476
:1019000068CE97DEC8F39923D1F3C6F3DF93CF9364
:101910001F930F93FF92C92FDD2788232AF0219769
:10192000660F771F881FDAF720E030E040E85FEBB2
:101930009FE3883920F0803E30F021968F770FDDCD
:10194000ECE7F0E003C00BDDE9EAF0E073DF8B01C8
:10195000BE01EC01FB2E6F5771097595771F880B3F
:10196000990BFCDD28E132E741E35FE38FDEAF2D29
:101970009801AE01FF900F911F91CF91DF9100DD93
:101980003FCEFA01DC01AA0FBB1F9B01AC01BF5780
:1019900028F422273327442750781FC0B75188F4F2
:1019A000AB2F0024469537952795011CA395D2F3BC
:1019B000002069F0220F331F441FB395DAF30DD0D6
:1019C000CDCC61307105A0E88A07B94630F49B019F
:1019D000AC016627772788279078309621F02083FE
:1019E00031834283538308959F3F31F0915020F417
:1019F000879577956795B795880F911D96958795EB
:101A000097F90895629FD001739FF001829FE00DC6
:101A1000F11D649FE00DF11D929FF00D839FF00D6D
:101A2000749FF00D659FF00D9927729FB00DE11D19
:101A3000F91F639FB00DE11DF91FBD01CF011124F6
:101A40000895AA1BBB1B51E107C0AA1FBB1FA61705
:101A5000B70710F0A61BB70B881F991F5A95A9F757
:101A600080959095BC01CD010895A1E21A2EAA1B84
:101A7000BB1BFD010DC0AA1FBB1FEE1FFF1FA2173E
:101A8000B307E407F50720F0A21BB30BE40BF50B3B
:101A9000661F771F881F991F1A9469F760957095C4
:101AA000809590959B01AC01BD01CF01089597FBF6
:101AB000092E05260ED057FD04D0D7DF0AD0001C12
:101AC00038F450954095309521953F4F4F4F5F4FDB
:101AD0000895F6F790958095709561957F4F8F4F9B
:101AE0009F4F0895FB019F01E8944230C4F04532B6
:101AF000B4F44A3029F497FB1EF4909581959F4FDA
:101B0000642F77270E94210D805D8A330CF0895D58
:101B10008193CB010097A1F716F45DE251931082F7
:101B2000C9010C94DE0FFA01CF93FF93EF9322309B
:101B300044F1253234F5C22FE894CA3049F497FBBA
:101B40003EF490958095709561957F4F8F4F9F4F94
:101B50002C2F332744275527FF93EF930E94350DF1
:101B6000EF91FF91605D6A330CF0695D6193B9019B
:101B7000CA01605070408040904051F716F4CDE2A9
:101B8000C19310828F919F91CF910C94DE0FAEE0A4
:101B9000B0E0EDECFDE00C9486100D891E8986E026
:101BA0008C831A8309838FEF9FE79E838D839E0129
:101BB000275E3F4FCE0101966F89788DA9010E9463
:101BC000EB0D2F813885020F131FF80110822E961E
:101BD000E4E00C94A210ABE0B0E0E1EFFDE00C9487
:101BE00078103C012B015A01FC0117821682838177
:101BF00081FD03C06FEF7FEFC6C19AE0892E1E0101
:101C00000894211C311CF3012381F20123FD8591ED
:101C100023FF81912F01882309F4B2C1853239F461
:101C200023FD859123FF81912F01853229F490E0D6
:101C3000B3010E94EE0FE7CF982FFF24EE249924E2
:101C4000FFE1FF15D0F09B3269F09C3228F490320E
:101C500059F0933291F40EC09D3249F0903369F4FB
:101C600041E024C052E0F52A84E0F82A28C098E038
:101C7000F92A25C0E0E1FE2A22C0F7FC29C0892FFD
:101C800080538A3070F4F6FE05C0989C902C112485
:101C9000980E15C0E89CE02C1124E80EF0E2FF2A13
:101CA0000EC09E3229F4F6FC6BC140E4F42A07C052
:101CB0009C3619F450E8F52A02C0983649F4F2012E
:101CC00023FD959123FF91912F01992309F0B8CF1E
:101CD000892F8554833018F08052833038F444E0E3
:101CE00050E0A40EB51E5FE359830FC0933631F068
:101CF000933779F0933509F056C020C0F501808103
:101D0000898342E050E0A40EB51E610101E010E0BD
:101D100012C0F501C080D180F6FC03C06FEF7FEFE9
:101D200002C0692D70E042E050E0A40EB51EC6016D
:101D30000E94D30F8C015FE7F52214C0F501C0802B
:101D4000D180F6FC03C06FEF7FEF02C0692D70E019
:101D500042E050E0A40EB51EC6010E94C80F8C01DF
:101D600050E8F52AF3FE07C01AC080E290E0B30104
:101D70000E94EE0FEA948E2D90E008171907A8F341
:101D80000EC0F601F7FC8591F7FE81916F0190E09E
:101D9000B3010E94EE0FE110EA94015010400115CA
:101DA000110579F7EAC0943611F0993669F5F7FE16
:101DB00008C0F501208131814281538184E090E0A7
:101DC0000AC0F501808191819C01442737FD40952F
:101DD000542F82E090E0A80EB91E9FE6F92257FF2B
:101DE00009C050954095309521953F4F4F4F5F4F1B
:101DF000E0E8FE2ACA01B901A1012AE030E00E9410
:101E00001A10D82ED21840C0953729F41F2D1F7EE6
:101E10002AE030E01DC01F2D197F9F3661F09037FA
:101E200020F4983509F0ACC00FC0903739F09837DE
:101E300009F0A6C004C028E030E00AC0106114FD1B
:101E4000146020E130E004C014FD166020E132E0AF
:101E500017FF08C0F501608171818281938144E0A0
:101E600050E008C0F50180819181BC0180E090E0E4
:101E700042E050E0A40EB51EA1010E941A10D82E17
:101E8000D2188FE7F82EF122F6FE0BC05EEFF52296
:101E9000D91438F4F4FE07C0F2FC05C08FEEF82226
:101EA00002C01D2D01C0192DF4FE0DC0FE01ED0D67
:101EB000F11D8081803319F499EEF92208C01F5F6B
:101EC000F2FE05C003C08F2D867809F01F5F0F2D2D
:101ED000F3FC14C0F0FE0FC01E1510F09D2C0BC0BB
:101EE0009D2C9E0C911A1E2D06C080E290E0B3013D
:101EF0000E94EE0F1F5F1E15C0F304C01E1510F4E4
:101F0000E11A01C0EE2404FF0FC080E390E0B301AA
:101F10000E94EE0F02FF1DC001FD03C088E790E0A4
:101F20000EC088E590E00BC0802F867891F001FF0D
:101F300002C08BE201C080E2F7FC8DE290E0B301C9
:101F40000E94EE0F06C080E390E0B3010E94EE0F06
:101F50009A94D914C0F3DA94F101ED0DF11D80814A
:101F600090E0B3010E94EE0FDD20A9F706C080E2E9
:101F700090E0B3010E94EE0FEA94EE20C1F743CE49
:101F8000F30166817781CB012B96E2E10C949410EA
:101F9000FC010590615070400110D8F78095909534
:101FA0008E0F9F1F0895FC01615070400190011039
:101FB000D8F7809590958E0F9F1F0895DC01FC0146
:101FC000672F71917723E1F7329704C07C916D936D
:101FD00070836291AE17BF07C8F308950F931F93E4
:101FE000CF93DF938C01EB018B8181FF1BC082FFBC
:101FF0000DC02E813F818C819D812817390764F4A3
:10200000E881F9810193F983E88306C0E885F985C1
:10201000802F0995892B31F48E819F8101969F83B2
:102020008E8302C00FEF1FEFC801DF91CF911F9188
:102030000F910895FA01AA27283051F1203181F13A
:10204000E8946F936E7F6E5F7F4F8F4F9F4FAF4FC0
:10205000B1E03ED0B4E03CD0670F781F891F9A1FD3
:10206000A11D680F791F8A1F911DA11D6A0F711D87
:10207000811D911DA11D20D009F468943F912AE093
:10208000269F11243019305D3193DEF6CF0108957B
:10209000462F4770405D4193B3E00FD0C9F7F6CFAC
:1020A000462F4F70405D4A3318F0495D31FD405274
:1020B000419302D0A9F7EACFB4E0A695979587950A
:1020C00077956795BA95C9F70097610571050895E9
:1020D0009B01AC010A2E0694579547953795279595
:1020E000BA95C9F7620F731F841F951FA01D08952D
:1020F0002F923F924F925F926F927F928F929F9218
:10210000AF92BF92CF92DF92EF92FF920F931F9305
:10211000CF93DF93CDB7DEB7CA1BDB0B0FB6F894B6
:10212000DEBF0FBECDBF09942A88398848885F84F6
:102130006E847D848C849B84AA84B984C884DF8067
:10214000EE80FD800C811B81AA81B981CE0FD11D4B
:102150000FB6F894DEBF0FBECDBFED010895F89421
:02216000FFCFAF
:1021620050726573737572653D00506100090041DC
:102172006C7469747564653D006D000A0050657287
:1021820063656E746167653D002500486561767917
:10219200207261696E004D6F6465726174652072B0
:1021A20061696E004E6F207261696E004572726FD6
:1021B200720048756D6964697479203D002E00547F
:1021C200656D70203D2000430043200054696D6519
:1021D2003D00253032783A253032783A253032784F
:1021E20000253032782F253032782F253032780092
:1021F200446174653D00ABAAADACAFAEB1B0B3B251
:10220200B5B4B7B6B9B8BBBABDBCBFBECD8B0100C1
:00000001FF
